:02000000F82BDB
:10000800FF00030E8301BB000A08BA008A017008CA
:10001800A4007108A3007208A2007308A1000C1CB8
:100028003328FC308F0018308E002608F00027088F
:10003800F1002808F2002908F300F00A0319F10A70
:100048000319F20A0319F30A7008A6007108A70039
:100058007208A8007308A900013088060C100B1C50
:100068006628061E4C282E08003A031940282E0838
:10007800033A031940284C282608AA002708AB0091
:100088002808AC002908AD000130AE00023088060F
:10009800861E63282E08003A031957282E08043AAA
:1000A8000319572863282608AF002708B000280836
:1000B800B1002908B2000230AE00043088060608F4
:1000C800A5000B102408F0002308F1002208F20014
:1000D8002108F3003A088A003B0E8300FF0E7F0ECA
:0200E80009000D
:0E00EA00F201F101F001F801F301003008000D
:1000F8007B15FB1F86280130F300F201F101F001A6
:08010800FA0DF20CFF300800B3
:08011000FA1FF2130030080091
:10011800FB14FB1F9628FF30F300F200F100F000FB
:08012800FA0DF20CFF30080093
:10013000A0017208031DAD287108F2007008F100DB
:10014000F001A0157208031DAD287108F200F1013D
:10015000A011201672080319BB282008F302031D02
:10016000031CBF280310F21BC328F00DF10DF20D84
:10017000F30BB328BF280130FC007520C6280230DD
:0E018000FC007C20C6280430FC00882008000B
:10018E0083120313F8010830FC00700DF80D74088B
:10019E00F8020318D428F8070310F00DFC0BCC2836
:0201AE00080047
:0E01B0008312031339088A0038088200080001
:0601BE00FB15FF300800F4
:1001C4007B14FB1FED28F201FA1FFF30F200F1004F
:0A01D400F000FA0DF20CFF300800F5
:1001DE007C182529FC18F6287C194429EF28A00143
:1001EE007208031D16297108F2007008F1007808D4
:1001FE00F000F801A0157208031D16297108F2000F
:10020E007008F100F001A01120167208031D1629C6
:10021E007108F200F101A01572080319382920089F
:10022E00F302031D031C3C290310F21B2529F80DB4
:10023E00F00DF10DF20DF30B1C293C297B1B701CEC
:10024E004029F81F4029F00A0319F10A0319F20A8E
:10025E00031D4029F20CF10CF00CF30A031944298A
:10026E0040290130FC00752047290230FC007C201B
:10027E0047290430FC00882047290830FC008C20D8
:04028E000000080064
:100292000A3083120313F4004408F000C7207008E8
:1002A200C500C50D4510C50D4510C50D4510C50D40
:1002B20045100A30F4004408F000C7207808F00026
:0602C2004508F0070800EA
:1002C8008312031372087606A000F801F901730877
:1002D8007702031C87297708FD007308F7007D085B
:1002E800F3007608FD007208F6007D08F200750834
:1002F800FD007108F5007D08F1007408FD00700824
:10030800F4007D08F00077080319002A7208FA0043
:10031800F217F61777087302F7000319BA2908309D
:100328007702031CB029F7007408F9007508F40077
:100338007608F500F60108307702031CB029F700AB
:100348007408F9007508F400F50108307702031CF9
:10035800B0297A08F200002A77080319BA2903108D
:10036800F60CF50CF40CF90CF70BB329A01FC729F0
:10037800F909F409F509F609F90A0319F40A031940
:10038800F50A0319F60A7908F80774080318740FB0
:10039800F00775080318750FF10776080318760F2C
:1003A800F207A01BE029031CF029F20CF10CF00C59
:1003B800F80CF30FF029FC290318F429F809F009BF
:1003C800F109F209F80A0319F00A0319F10A0319E5
:1003D800F20A8030FA06F8290130FC00EF20022AE0
:1003E8000230FC00EF20022A0430FC009820022A88
:1003F8000830FC008C20022A0030FC0000000800B5
:1004080083120313FB017308031D770803195B2A82
:1004180072087606FA007708F3077E30031C182A5C
:10042800F30203185E2A1B2AF302031C612A7208CE
:10043800F8007108FC007008FD00F817F6170310A3
:10044800F201F101F0011830A0007D1C352A740872
:10045800F00775080318750FF10776080318760F6B
:10046800F207F20CF10CF00CF80CFC0CFD0C03106C
:10047800A00B292AF21B452AF80DF00DF10DF20DFB
:10048800F3037B1B701C572AF81F572AF00A03191D
:10049800F10A0319F20A031D572AF20CF10CF00CA9
:1004A800F30A03195E2AFA1FF2130030632A013097
:1004B8007520632A02308C20632A04307C200000D7
:0204C80008002A
:1004CA0083120313FB01FC01FA0173080319922A30
:1004DA00FA13F2178630F302F31B762A0319762AE7
:1004EA00942AF309F30A08307302031C832AF300DF
:1004FA00F20DF2017308031D03108A2A7308031907
:10050A008A2A0310F20CF30B862A7B1B721C922A8E
:10051A00031C922AF20A0319992AF1019C2A7B14D4
:10052A00FB1F9F2AF1019F2A0130FC00A12A0030FB
:10053A00FC00A12AFF30FC00FC080319A52AE220CE
:06054A007208F000080039
:1005500083120313FA017308031D7A147708031D2D
:10056000FA147A080319F42A033A0319BF2A7A18ED
:10057000BC2AF61FF22AF02AF21FF02AF22A720889
:100580008039FA00F21376088039F6137A060319D7
:10059000CD2A7A080319F02AF22A77087302031980
:1005A000D42A031CE82AEC2A760872020319DB2AF3
:1005B000031CE82AEC2A750871020319E22A031CBD
:1005C000E82AEC2A740870020319F42A0318EC2AAA
:1005D000FA080319F22AF02AFA080319F02AF22A73
:1005E0000314080003100800031403150800080092
:1005F0008030831203134506F00080307002031D23
:10060000032B0030440203180E2B4408003CF0007A
:100610004508031C013EF101F102122B4408F000D1
:060620004508F10008008E
:10062600D8208A110A128000840AB80A0319B90A66
:08063600F003031D132B080063
:10063E00831203137408003A031D3A2B7508003A0F
:10064E00031D3A2B7608003A031D3A2B7708003A21
:10065E00031D3A2BFF30F000FF30F1007F30F20027
:10066E00FF30F300D52B8312031377080319C92B20
:10067E0073080319CC2B720876068039FA00F2172C
:10068E00F617A0017208F8007108FC007008FD0052
:10069E007408FD027508031C750FFC027608031C16
:1006AE00760FF802F801FC01FD01031C652B031007
:1006BE00F20CF10CF00CF80C0130A0007708F302EC
:1006CE00031C6F2B7E302007F3070318CF2B742BE0
:1006DE007E302007F307031CD22B1830FA07FD0DCE
:1006EE00FC0DF80DF00DF10DF20DA00D7408F002D9
:1006FE007508031C750FF1027608031C760FF202C3
:10070E00760DA004201C8D2B7D14982B7408F007F9
:10071E0075080318750FF10776080318760AF207A5
:10072E007D10FA031F307A05031D762B7B1B7D1C73
:10073E00BF2B0310F00DF10DF20DA00D7408F00299
:10074E007508031C750FF1027608031C760FF20272
:10075E00760D20040139FD070318FC0A0319F80A67
:10076E00031DBF2BF80CFC0CFD0CF30A0319CF2B49
:10077E00FA1FF8137808F2007C08F1007D08F000EB
:10078E000030D42B0130DF20D42B02307520D42B37
:0E079E0004308C20D42B08307C200000080092
:1007AC00831203137008F8007108F0007208F1004E
:1007BC007308F200F301FB01FC019E30F300FA0117
:1007CC00F21FF42BF809F009F109F209F80A0319E0
:1007DC00F00A0319F10A0319F20AFA170230FC00A5
:0407EC00EF200800F2
:1007F00083120313A501A601A701A801A901AA015B
:10080000AB01AC01AD01AE01AF01B001B101B2016C
:10081000B301B401B501B601B701BC01BD01BE0110
:10082000BF01C001C101C201C3010C10FC308F0027
:1008300018308E00901010129012073083169F000F
:1008400030308600870188018312880108088700FC
:10085000070886003330FB00BB30FC00DF30FD00B2
:10086000FD0B302CFC0B302CFB0B302C000000005F
:1008700083160C140B17831210148B158B17D12DA4
:10088000B701F22D3708003A031D492C0430AE00A1
:10089000522C3708033A031D502C0630AE00522C60
:1008A0000730AE000130B700B301B401B501B601A5
:1008B000F22D3708003A031D602C0330AE00692C7E
:1008C0003708043A031D672C0630AE00692C073048
:1008D000AE000230B700B301B401B501B601F22D8C
:1008E0000730FC007D30FD00FD0B742CFC0B742CDC
:1008F0003308F0003408F1003508F2003608F30040
:10090000F00A0319F10A0319F20A0319F30A70082D
:10091000B3007108B4007208B5007308B6008030E7
:100920003606F00080307002031DA02C0030350226
:10093000031DA02C0B303402031DA02CB830330251
:10094000031CA42C0730AE000330B700F22D073093
:10095000FC007D30FD00FD0BAB2CFC0BAB2C3308F9
:10096000F0003408F1003508F2003608F300F00A10
:100970000319F10A0319F20A0319F30A7008B30004
:100980007108B4007208B5007308B60080303606EE
:10099000F00080307002031DD72C00303502031D9B
:1009A000D72C0B303402031DD72CB8303302031C74
:1009B000DB2C0730AE000430B700F22D0730FC000E
:1009C0007D30FD00FD0BE22CFC0BE22C3308F00027
:1009D0003408F1003508F2003608F300F00A031974
:1009E000F10A0319F20A0319F30A7008B300710837
:1009F000B4007208B5007308B60080303606F00007
:100A000080307002031D0E2D00303502031D0E2DA7
:100A100003303402031D0E2DE8303302031C112D68
:100A2000AE010530B700F22D2A082F02C4002B08B2
:100A3000031C013E3002C500F8227008BC0071089A
:100A4000BD000030BD1BFF30BE00BF003C08F00001
:100A50003D08F1003E08F2003F08F300D6231730AE
:100A6000F400B730F5005130F6007230F700042280
:100A70007008F4007108F5007208F6007308F700BA
:100A80000030F0000030F1000030F2008030F30060
:100A90001F236630F4006630F5006630F6008030C3
:100AA000F70004227008C0007108C1007208C2007B
:100AB0007308C3007008F4007108F5007208F600AE
:100AC0007308F7000030F0000030F1002030F20031
:100AD0008330F300A822013003180030F0007008C2
:100AE00003199B2D2608BC002708BD002808BE005E
:100AF0002908BF0086144008F4004108F5004208A8
:100B0000F6004308F7000030F0000030F1004630F6
:100B1000F2008530F300A822013003180030F00005
:100B2000700803199B2D0030C0000030C100463012
:100B3000C2008530C3004008F0004108F1004208BF
:100B4000F2004308F3000030F4000030F5000030FC
:100B5000F6007E30F700642165227008C400492148
:100B6000700887000530AE000630B700B301B4014D
:100B7000B501B601F22D3708033A0319C42D370821
:100B8000043A0319C42DC62D8701C82DFF308700F4
:100B9000AE010730B700B301B401B501B601F22DC3
:100BA000F22D2E08003A0319402C2E08013A0319A1
:100BB000422C2E08023A0319592C2E08033A031925
:100BC000702C2E08043A0319A72C2E08053A031995
:100BD000DE2C2E08063A0319142D2E08073A0319A5
:100BE000BB2DD02D861C2D2E2608F0002708F100E5
:100BF0002808F2002908F3003C08F0023D08031C15
:100C00003D0FF1023E08031C3E0FF2023F08031C99
:100C10003F0FF302D6231730F400B730F500513000
:100C2000F6007230F70004227008F4007108F50035
:100C30007208F6007308F7000030F0000030F10091
:100C40000030F2008030F300A82201300318003099
:0E0C5000F000700803192D2E86103F2C2E2E5A
:02400E004A2F37
:00000001FF
